:020000040800F2
:10000000D0480020F5020008BF1A00087F19000838
:10001000BD1A00087D080008DD1D00080000000072
:100020000000000000000000000000003502000891
:100030007F0800080000000091020008691C000809
:100040000F0300080F0300080F0300080F03000848
:100050000F0300080F0300080F0300080F03000838
:100060000F0300080F0300080F0300080F03000828
:100070000F0300080F0300080F0300080F03000818
:100080000F0300080F0300080F0300080000000022
:100090000000000000000000000000000F03000846
:1000A0000F0300080F030008391D00080F030008A4
:1000B0000F0300080F0300080F0300080F030008D8
:1000C0000F0300080F0300080F0300080F030008C8
:1000D0000F0300080F0300080F03000800000000D2
:1000E0000F0300080F0300080F03000800000000C2
:1000F0000000000000000000000000000F030008E6
:10010000000000000F0300080F0300080F030008A1
:1001100000000000000000000000000000000000DF
:100120000F0300080F0300080F0300080F03000867
:100130000F030008000000000000000000000000A5
:100140000000000000000000000000000F03000895
:100150000F0300080F0300080F0300080F03000837
:100160000F0300080F03000800000000000000005B
:10017000000000000000000000000000000000007F
:10018000000000000F030008000000000000000055
:100190000F03000800F002F800F03CF80AA090E815
:1001A000000C82448344AAF10107DA4501D100F032
:1001B00031F8AFF2090EBAE80F0013F0010F18BFC3
:1001C000FB1A43F0010318471C2800003C280000DC
:1001D000103A24BF78C878C1FAD8520724BF30C873
:1001E00030C144BF04680C60704700000023002445
:1001F00000250026103A28BF78C1FBD8520728BF37
:1002000030C148BF0B6070471FB502F09DFB1FBD9A
:1002100010B510BD00F08DF91146FFF7F5FF01F0A4
:10022000EFFD00F0ABF903B4FFF7F2FF03BC00F001
:10023000B3F900002C4B19680868B0E8F04F80F360
:100240000988BFF36F8F4FF0000080F3118870476B
:100250000000000008480068006880F308884FF03C
:10026000000080F3148862B661B6BFF34F8FBFF30E
:100270006F8F00DF00BF00BF08ED00E0DFF80C006B
:10028000016841F470010160704700BF88ED00E033
:10029000EFF30980BFF36F8F134B1A681EF0100F36
:1002A00008BF20ED108A20E9F04F106009B44FF02C
:1002B000500080F31188BFF34F8FBFF36F8F02F0B0
:1002C0007BF94FF0000080F3118809BC19680868B9
:1002D000B0E8F04F1EF0100F08BFB0EC108A80F3AA
:1002E0000988BFF36F8F704724000020EFF305806B
:1002F000704700000948804709480047FEE7FEE7CD
:10030000FEE7FEE7FEE7FEE7FEE7FEE7FEE7FEE7C5
:1003100004480549054A064B70470000291D00089E
:1003200095010008D0420020D0480020D044002091
:10033000D044002053EA020C00F069802DE9F04B14
:100340004FF00006002B1FBFB3FA83F503FA05F444
:1003500024FA05F65E4012BF1643B2FA82F502FA9D
:1003600005F4C5F120051EBF22FA05FC44EA0C0481
:10037000203556EA044C4FEA144418BF641C4FF071
:1003800000084FF00009904271EB030C39D30029AB
:1003900019BFB1FA81F701FA07F6B0FA80F700FA4F
:1003A00007F6C7F120071EBF20FA07FC46EA0C0635
:1003B0002037B6FBF4FCA7EB0507103F07F01F0B37
:1003C000CBF120060CFA0BFB2CFA06F644BFB34621
:1003D0000026202FA4BF5E464FF0000B5BEA060C00
:1003E00008BF4FF0010B19EB0B09ABFB027C48EB8C
:1003F0000608C01B06FB02CC0BFB03CC71EB0C0107
:10040000C1E70B46024641464846BDE8F08B13B5AE
:100410004FF000004FF00001AFF30080BDE81C403A
:10042000704740EA010310B59B070FD1042A0DD392
:1004300010C808C9121F9C42F8D020BA19BA8842C5
:1004400001D9012010BD4FF0FF3010BD1AB1D30704
:1004500003D0521C07E0002010BD10F8013B11F83A
:10046000014B1B1B07D110F8013B11F8014B1B1B63
:1004700001D1921EF1D1184610BD10B5203AC0F03E
:100480000B80B1E81850203AA0E81850B1E8185095
:10049000A0E81850BFF4F5AF5FEA027C24BFB1E8D2
:1004A0001850A0E8185044BF18C918C0BDE8104043
:1004B0005FEA827C24BF51F8043B40F8043B08BF4C
:1004C0007047D20728BF31F8023B48BF11F8012B13
:1004D00028BF20F8023B48BF00F8012B70474FF0BF
:1004E000000200B5134694469646203922BFA0E884
:1004F0000C50A0E80C50B1F12001BFF4F7AF090790
:1005000028BFA0E80C5048BF0CC05DF804EB890080
:1005100028BF40F8042B08BF704748BF20F8022BC3
:1005200011F0804F18BF00F8012B704770477047DB
:100530007047754600F02CF8AE46050069465346F4
:1005400020F00700854618B020B5FFF7E1FEBDE8B2
:1005500020404FF000064FF000074FF000084FF02A
:10056000000B21F00701AC46ACE8C009ACE8C009BB
:10057000ACE8C009ACE8C0098D46704710B5044628
:10058000AFF300802046BDE81040FFF74CBE0000EE
:10059000004870477042002001491820ABBEFEE7BA
:1005A000260002007047000038B5044600F060FAEB
:1005B000054620208DF80000200C8DF80100200A4F
:1005C0008DF802008DF8034000F028F9104C00224D
:1005D0001021204600F046FA4FF47A73042269464F
:1005E0000C4800F000FF01221021204600F03AFAEA
:1005F00000F012F80228FBD000F03AFA401B40F657
:10060000B831884201D9032038BD002038BD000030
:1006100000000240E00400207CB511A0114C0068ED
:10062000009000221021204600F01CFA4FF47A7549
:100630002B46012269460C4800F0D5FE2B460122CC
:1006400001A9094800F022FE01221021204600F0F5
:1006500009FA9DF80400C00700D002207CBD00000C
:100660000500000000000240E004002038B50CA0A6
:100670000C4C0068009000221021204600F0F2F996
:100680004FF47A7301226946074800F0ACFE01225C
:100690001021204600F0E6F9BDE83840FFF7BCBF66
:1006A000FF00000000000240E0040020F8B505460D
:1006B00003208DF80000080C8DF80100080A8DF861
:1006C0000200104F14468DF8031000221021384606
:1006D00000F0C8F94FF47A763346042269460A4896
:1006E00000F081FEA2B233462946074800F0CEFD55
:1006F00008B10120F8BD01221021384600F0B2F9FE
:100700000020F8BD00000240E0040020F8B50446D7
:100710000EA00F4D0068009000221021284600F026
:10072000A1F94FF47A76334601226946094800F070
:100730005AFE334604222146064800F0A7FD012256
:100740001021284600F08EF9F8BD00009F0000003F
:1007500000000240E00400202DE9F84F16460C4648
:10076000834600F085F98246002001E000F58070A4
:10077000A042FBD9051BB54200D9354604EB06095A
:10078000244F4FF002084FF47A7600BF8DF80080B6
:10079000200C8DF80100200A8DF802008DF803402E
:1007A00000F03CF800221021384600F05BF9334697
:1007B00004226946184800F016FE30B9AAB2334642
:1007C0005946154800F00FFE10B10120BDE8F88F22
:1007D00001221021384600F045F900BFFFF71CFF49
:1007E0000228FBD000F044F9A0EB0A00B04201D986
:1007F0000320EBE72C4404F58070AB44484502D954
:10080000A9EB040501E04FF480754C45BED30020F0
:10081000DCE7000000000240E0040020F8B514A06E
:100820000068009000F024F9124E054600221021C5
:10083000304600F017F94FF47A74234601226946D6
:100840000D4800F0D0FD01221021304600F00AF9D9
:1008500007E000BF00F00CF9401BA04201D90320C3
:10086000F8BDFFF7D9FE0228F4D00020F8BD000043
:100870000600000000000240E0040020FEE7704790
:1008800072B6FEE72DE9F84FDFF8B8A10022012487
:1008900003254FF00F090AF1040BAAF1040E00BF63
:1008A0000B6804FA02F63340B34273D10F7907F0B4
:1008B0000307012F01D0022F16D187684FEA4208A3
:1008C00005FA08FC27EA0C07D1F80CC00CFA08FC62
:1008D0004CEA070CC0F808C04768B7430E79C6F366
:1008E000001696403E4346600E79F643B6070DD09B
:1008F000C768560005FA06FC27EA0C07D1F808C0BD
:100900000CFA06FC4CEA070CC0F80CC00E7906F095
:100910000306022E10D1D60800EB8608D8F8206016
:1009200057074FEAD76C09FA0CF7BE430F6907FA6D
:100930000CF73743C8F8207006684FEA420C05FAF6
:100940000CF7BE430F7907F0030707FA0CF737439C
:1009500007604E6816F4403F6DD03B4E376847F451
:1009600080473760366822F0030706F48046009619
:10097000364E07EB060CDCF8086897073F0F09FABC
:1009800007F826EA0806DFF8C880404503D14FF093
:1009900000081EE04FE0DFF8BC80404502D14FF078
:1009A000010816E0DFF8B080404502D14FF00208A0
:1009B0000FE0DFF8A880404502D14FF0030808E0BF
:1009C000DFF89C80404502D14FF0040801E04FF071
:1009D000070808FA07F848EA0608CCF80888DAF8A1
:1009E00000605746D1F804C09E435FEACC2C00D586
:1009F0001E433E60DBF800605F46D1F804C09E43B2
:100A00005FEA8C2C00D51E433E60DEF8006077461E
:100A1000D1F804C09E435FEA8C3C00D51E433E6083
:100A2000084F083F3E68D1F804C09E435FEACC3CC3
:100A300000D51E433E60521C102AFFF431AFBDE8C2
:100A4000F88F0000083C014044380240003001406B
:100A5000000002400004024000080240000C024076
:100A6000001002400AB1816170470904FBE70000F1
:100A70000148806870470000140000200248816827
:100A80000278114481607047140000200B4810B5B3
:100A9000016841F400710160016841F48061016006
:100AA000016841F480710160032000F099F80F2083
:100AB00000F006F800F04AF8002010BD003C0240AB
:100AC00030B505461C4887B00024016841F48021F8
:100AD0000160006806A900F48020009001A800F0E1
:100AE0002BF900F049F91549154AB0FBF1F1154809
:100AF000491E026040F2E732C0E90324C0E9011454
:100B0000846100F016FE040012D10E4800F040FE91
:100B100004000DD11A2000F035F8102D07D2002264
:100B200029461A2000F03CF80748056000E001243F
:100B300007B0204630BD00004438024040420F005C
:100B40000048014038050020180000200C4882B001
:100B5000016841F480410160006800F48040009029
:100B60000748001F016841F08051016000680022C1
:100B700000F0805000900F21901E02B000F010B8DD
:100B800044380240002809DB00F01F020121914097
:100B90004009800000F1E020C0F80011704700001B
:100BA000F0B40E4B1B680C46C3F30223C3F10705D8
:100BB000042D00D90425191D072901D2002300E0C6
:100BC000DB1E012606FA05F1491E214099409E4090
:100BD000761E16403143F0BC01F001B90CED00E087
:100BE000064900F0070208684FF6FF03184040EA84
:100BF0000220034A10430860704700000CED00E03B
:100C00000000FA052DE9F0470E46050065D0DFF833
:100C10001481D8F80000F7B200F00700B04207D204
:100C200088F80070D8F8000000F00700B04254D1F6
:100C300028683D4C810712D5400703D5206840F451
:100C4000E05020602878000703D5206840F4604019
:100C500020602068A96820F0F00008432060287810
:100C6000C0072DD0304968680839012812D0022801
:100C700013D0032811D00968890700292DDA2168CB
:100C800021F0030101432160FFF7F2FE814641F2AA
:100C9000883A0EE009688903EFE709688901ECE703
:100CA000FFF7E6FEA0EB0901514502D90320BDE89C
:100CB000F0872068696800F00C00B0EB810FEFD17D
:100CC000D8F80010404601F00701B14207D907707B
:100CD000006800F00700B04201D00120E7E7287863
:100CE000400705D52068E96820F4E05008432060FB
:100CF0002878000706D52068296920F4604040EA7A
:100D0000C100206000F048F82168084AC1F30311CF
:100D1000515CC8400649086006480068FFF7D0FEED
:100D20000020C4E7003C024008380240A82900081F
:100D300020000020180000200F2202600C4A1368D7
:100D400003F003034360136803F0F0038360136848
:100D500003F4E053C36012684FF4E05303EAD20295
:100D600002610448006800F0070008607047000056
:100D700008380240003C0240044805490068096800
:100D8000044AC1F34231515CC84070472000002042
:100D900008380240B8290008154810B5006810F05E
:100DA0000C02144813D01449042A0FD0082A0ED17B
:100DB0000F4C241F2268236802F03F025B0207D514
:100DC0002068C0F38810A0FB010106E0084610BDB2
:100DD0002168C1F38811A1FB00010023FFF7AAFAE3
:100DE0002168C1F30141491C4900B0FBF1F010BD7D
:100DF000083802400024F40040787D012DE9F84FC6
:100E000004006ED02078DFF84C93C007A9F10405E8
:100E10004AD009F104000168C1F38101012908D019
:100E20000068C0F3810002280AD1D9F8000040020E
:100E300006D52868800337D560680028E1D033E004
:100E40006068B0F5803F10D0B0F5A02F286810D0B2
:100E500020F480302860286820F4802028606068B2
:100E6000A8B1FFF705FE06460DE0286840F4803083
:100E7000F4E740F480202860F7E700BFFFF7F8FDB3
:100E8000801B642873D828688003F7D50CE0FFF72F
:100E9000EFFD064605E000BFFFF7EAFD801B642872
:100EA000F0D828688003F7D42078DFF8AC82800778
:100EB0004FF0000A3ED5A748001D016811F00C0F45
:100EC00008D00068C0F3810002280BD1D9F80000D7
:100ED000400207D42868800716D5E068012800D1B1
:100EE00012E033E1E068B8B10120C8F80000FFF774
:100EF000BFFD064605E000BFFFF7BAFD801B0228D4
:100F0000C0D828688007F7D52868216920F0F80044
:100F100040EAC10028600DE0C8F800A0FFF7A8FD76
:100F2000064604E0FFF7A4FD801B02281FD82868AE
:100F30008007F7D42078000722D5864F874861695B
:100F4000703771B101210160FFF792FD064604E0A0
:100F5000FFF78EFD801B022809D838688007F7D577
:100F60000EE0C0F800A0FFF783FD064605E082E032
:100F7000FFF77EFD801B02287DD838688007F7D4F4
:100F80002078400768D5DFF8CCB100270BF13C0B87
:100F9000DBF80000C0000BD4DBF8001041F08051FA
:100FA000CBF80010DBF80000012700F08050009023
:100FB0006B4E3068C00510D4306840F480703060EB
:100FC000FFF756FD009005E0FFF752FD0099401A2B
:100FD000022850D83068C005F6D55E4EA0686C3641
:100FE00001280FD00528306810D020F001003060B3
:100FF000306820F004003060A068B8B1FFF738FD19
:1010000000900FE0306840F00100F4E740F0040089
:101010003060F7E7FFF72CFD0099411A41F2883064
:10102000814266D830688007F4D50EE0FFF720FDD6
:10103000009007E0FFF71CFD0099411A41F288304B
:10104000814256D830688007F4D42FB1DBF8001005
:1010500021F08051CBF80010A069C8B33D49091DAB
:101060000968C1F3810102294AD00228504607D0FD
:10107000C8F8600000E03CE0FFF7FAFC04463BE003
:101080004746C8F86000FFF7F3FC064605E000BFDE
:10109000FFF7EEFC801B02282BD828688001F7D4CC
:1010A000D4E907010843A16A2E4A490802EB01412D
:1010B000626A41EA8211084394F82C1040EA016107
:1010C000C9F8001001203866FFF7D2FC044606E09C
:1010D0003EE000BFFFF7CCFC001B022809D82868BF
:1010E0008001F7D534E000BFFFF7C2FC001B0228E7
:1010F00002D90320BDE8F88F28688001F4D427E0E6
:101100000128F7D0D9F80000E26900F4800191428B
:101110001CD1226A00F03F01914217D147F6C071FD
:10112000626A0140B1EB821F10D1A26A4FF0FF3317
:1011300000F4403103EB5202B1EB024F06D194F8B8
:101140002C1000F07060B0EB016F01D00120D1E7EE
:101150000020CFE70438024000004742800E47429B
:10116000007000400000FFFF70B5040009D0606A05
:10117000002540B125616561A56294F8510040B138
:101180000CE0012070BD6068B0F5827FF4D0E561AD
:10119000F2E784F85050204600F044F8022084F82A
:1011A00051002068016821F040010160A088218978
:1011B00000F4827001F404410843A18901F4006144
:1011C0000843217C01F002010843217D01F0010167
:1011D0000843218B01F400710843217F01F038019D
:1011E000084394F8201001F080010843218D01F498
:1011F0000051084321680860A069042101EA1040F9
:1012000094F8241001F01001084321684860206818
:10121000C16921F40061C1616565012084F8510054
:10122000002070BD10B586B0044614216846FFF753
:1012300056F913492068884220D1124800210268DB
:1012400042F480520260006800F4805005900D481E
:101250001438026842F001020260006800F00100E8
:101260000590E02000900220CDE9010103200390C9
:101270000520049069460448FFF704FB06B010BD42
:101280000030014044380240000002402DE9F84F90
:10129000044640680025984616460F464FF0040B5A
:1012A000B0F5827F01D1A06888B194F85000012880
:1012B00018D0012084F85000FFF7DAFB814694F83B
:1012C00051004FF0000A01280ED0022582E084F878
:1012D00051B013460A462046CDF8008000F036F99A
:1012E000BDE8F88F0220FBE7002F72D0002E70D0EF
:1012F00084F851B0C4F854A0A763A687E687C4F861
:1013000030A0A4F834A0A4F836A0C4F840A0C4F8D3
:1013100044A0A068B0F5004F09D12068016821F011
:10132000400101602068016821F48041016020686B
:101330000168490603D4016841F040010160E0689A
:10134000D8B139E020688168C90709D0007BA16B5A
:101350000870A06B401CA063E08F401EE0870CE08B
:10136000FFF786FBA0EB0901414503D3B8F1FF3F2E
:1013700003D036E0B8F1000F33D0E08F0028E1D180
:101380001DE020688168C90709D0C068A16B08808A
:10139000A06B801CA063E08F401EE0870CE0FFF78D
:1013A00067FBA0EB0901414503D3B8F1FF3F03D030
:1013B00017E0B8F1000F14D0E08F0028E1D14A46C1
:1013C0004146204600F07CFB08B120206065606D3E
:1013D00000B10125012084F8510084F850A028466E
:1013E0007EE70325F6E72DE9F84F044690F8500014
:1013F00000271D461646894601280DD04FF0010BE7
:1014000084F850B0FFF734FB804694F85100BA4698
:10141000012804D0022793E00220BDE8F88FB9F13B
:10142000000F73D0002E71D0032084F85100C4F84F
:1014300054A0C4F83090A686E686C4F838A0A4F874
:101440003CA0A4F83EA0C4F844A0C4F840A0A06802
:10145000B0F5004F09D12068016821F0400101601A
:101460002068016841F480410160206801684906F4
:1014700003D4016841F040010160E068B0F5006FFD
:10148000606803D030B3012E24D041E008B1012EB2
:101490001CD1206B21680088C86006E02068816844
:1014A000890709D5216B0988C160206B801C2063E6
:1014B000E08E401EE08609E0FFF7DAFAA0EB0800B4
:1014C000A84202D3681C01D031E07DB3E08E002831
:1014D000E4D120E0206B21680078087306E02068E2
:1014E0008168890709D5216B09780173206B401C3D
:1014F0002063E08E401EE0860AE0FFF7B9FAA0EB19
:101500000800A84203D3681C02D010E017E06DB1B8
:10151000E08E0028E3D142462946204600F0FEFA3C
:1015200008B120206065A06818B106E0FFE7032736
:1015300006E02068C16880680090606D00B10127F6
:1015400084F851B084F850A0384666E72DE9F84F8A
:10155000044690F8500000270A9E1D4692468B468E
:101560004FF0010901280ED0012084F85000FFF748
:101570007FFA804694F85100616801280CD0B1F5DB
:10158000827F07D102E00220BDE8F88FA16809B987
:10159000042801D00227C2E0BBF1000F27D0BAF126
:1015A000000F24D01DB394F85100042802D0052068
:1015B00084F8510000206065C4F838A0E587A5874D
:1015C000C4F830B0E586A5862064606420680168B0
:1015D000490603D4016841F040010160E068B0F5BC
:1015E000006F606805D0E8B3012D46D07FE0012789
:1015F00095E008B1012D39D1206B21680088C860C1
:10160000206B801C2063E08E401EE0862EE0206868
:10161000816889070FD5E18E69B1B9F1010F0AD14F
:10162000216B0988C160206B801C2063E08E401E06
:10163000E0864FF0000920688168C9070CD0E18F6F
:1016400051B1C068A16B0880A06B801CA063E08FC3
:10165000401EE0874FF00109FFF70AFAA0EB0800EF
:10166000B04200E009E001D3701C50D1E08E0028A8
:10167000CDD1E08F0028CAD13FE0206B21680078EF
:101680000873206B401C2063E08E401EE0862EE035
:101690002068816889070FD5E18E69B1B9F1010F22
:1016A0000AD1216B09780173206B401C2063E08E06
:1016B000401EE0864FF0000920688168C9070CD001
:1016C000E18F51B1C068A16B0870A06B401CA06392
:1016D000E08F401EE0874FF00109FFF7C9F9A0EB4A
:1016E0000800B04202D3701C01D010E07EB1E08E41
:1016F0000028CDD1E08F0028CAD14246314620468D
:1017000000F00CFA28B101272020606507E00327CC
:1017100005E0A06818B92068C168806800900120C1
:1017200084F85100002084F8500038462CE77047B8
:10173000704710B5040003D094F83D0010B107E0E5
:10174000012010BD002084F83C00204600F01EF867
:10175000022084F83D00211D206800F0F3FA0120EA
:1017600084F8460084F83E0084F83F0084F8400086
:1017700084F8410084F8420084F8430084F844006F
:1017800084F8450084F83D00002010BD704700003B
:1017900090F83D10012901D001207047022180F806
:1017A0003D100168CA6842F00102CA6000680E4933
:1017B00088420ED0B0F1804F0BD00C49884208D03F
:1017C0000B49884205D00B49884202D00A49884219
:1017D00004D1816801F00701062903D0016841F0B6
:1017E000010101600020704700000140000400403A
:1017F00000080040000C004000400140704770B5F8
:101800000446006801694FF00005C943890715D4F3
:10181000C168C943890711D4E91E016101202077FD
:10182000206880698007204602D0FFF7E7FF04E0C8
:1018300000F098F8204600F096F8257720680169B6
:10184000C943490717D4C168C943490713D46FF086
:1018500004010161022020772068806910F4407F34
:10186000204602D0FFF7CAFF04E000F07BF82046D4
:1018700000F079F8257720680169C943090716D473
:10188000C168C943090712D46FF00801016104203F
:1018900020772068C0698007204602D0FFF7AEFF9E
:1018A00004E000F05FF8204600F05DF8257720683E
:1018B0000169C943C90617D4C168C943C90613D40D
:1018C0006FF010010161082020772068C06910F4D2
:1018D000407F204602D0FFF791FF04E000F042F87D
:1018E000204600F040F8257720680169C943C90700
:1018F00008D1C168C943C90704D1891E01612046C6
:1019000000F032F820680169C943090609D4C168AA
:10191000C943090605D46FF0800101612046FFF735
:1019200006FF20680169C943490609D4C168C94353
:10193000490605D46FF040010161204600F01EF811
:1019400020680169C94389060BD4C168C943890667
:1019500007D46FF0200101612046BDE87040FFF719
:10196000E7BE70BD7047704700680349884201D1E7
:10197000FFF784B870470000004801407047FEE759
:1019800010B596B01C2211496846FEF776FD00217D
:10199000684600F091FA0E4C0C491C2220601C3164
:1019A00007A8FEF76AFD002107A800F085FA07499D
:1019B00060601C2238310EA8FEF75FFD00210EA8E2
:1019C00000F07AFAA06016B010BD0000542900089B
:1019D00008000020F0B587B014216846FEF77FFDAF
:1019E00021480024016841F004010160016801F010
:1019F00004010591016841F080010160016801F076
:101A000080010591016841F0010101600068174EF5
:101A100000F001004FF400550590002229463046A1
:101A2000FFF720F8124F002210213846FFF71AF86E
:101A300000950125CDE90154694630460394FEF72F
:101A400021FFCDE90054694638460295FEF71AFF9A
:101A500010200090CDE90154694638460394FEF702
:101A600011FF07B0F0BD000030380240000802400E
:101A700000000240104810B50E4901604FF4827119
:101A8000416000218160C1604FF400720161C0E9D2
:101A900005121022C0E90721416281620A21C16258
:101AA000FFF762FB002803D0BDE81040FEF7E8BE58
:101AB00010BD000000300140E0040020FEE7FEE71A
:101AC000F8B5044640684FF48273984221D1A0686B
:101AD0004FF48065B0F5004F01D0A8420AD12068CC
:101AE000066826F0400606606068984211D1A0683A
:101AF000A8420ED000920B4600228021204600F022
:101B000039F8002804D0606D40F0200060650320A3
:101B1000F8BD00920B4600220121EFE738B50446DC
:101B20001248134B0068B0FBF3F04FF47A7358433C
:101B300000906068B0F5827F0DD10B4600920022C4
:101B40008021204600F016F870B1606D40F0200052
:101B50006065032038BD009830B1401E00902068B9
:101B60008068C0430006F6D5002038BD2000002064
:101B700000366E012DE9F8431E469146884604461C
:101B8000089DFEF775FF401B351AFEF771FF0746EB
:101B900025480068C0F3CB30684338E0701C37D06C
:101BA000FEF766FFC01BA84203D215B1009860B3D0
:101BB0002CE02068416821F0E00141606068B0F5E8
:101BC000827F0BD1A068B0F5004F02D0B0F5806FD6
:101BD00004D12068016821F040010160A06AB0F5DD
:101BE000005F09D12068016821F40051016020687C
:101BF000016841F400510160012084F85100002087
:101C000084F850000320BDE8F8830025401E0090B2
:101C10002068816838EA010004D000214945BDD11F
:101C20000020F0E70121F9E720000020094C4FF4E3
:101C30000055002229462046FEF714FF642000F0DC
:101C40002FF9012229462046FEF70CFF642000F000
:101C500027F9EEE700080240012000F021F9FBE738
:101C6000012000F01DF9FBE710B5502080F311882A
:101C7000BFF34F8FBFF36F8F00F09EFD18B1044983
:101C80004FF080500860002080F3118810BD0000E4
:101C900004ED00E030B593B030216846FEF71FFC3C
:101CA00014210CA8FEF71BFC1D480025016841F01B
:101CB00080510160006800F080501190194801685F
:101CC00021F4404141F4004101600068022400F425
:101CD0004040119001200090000401908001CDE966
:101CE000064019200890A820CDE9090404200B9093
:101CF0006846FFF783F808B172B6FEE70CA90F201B
:101D000081E831004FF48050CDE90F0502210CA885
:101D1000FEF778FF002801D072B6FEE713B030BDA1
:101D200040380240007000400248016841F47001F0
:101D30000160704788ED00E00148FFF760BD0000DA
:101D400038050020F0B502681D4B1E4C9F031E4D48
:101D50001E4E984207D0B84205D0A04203D0A842F8
:101D600001D0B04204D122F0700C4A6842EA0C0261
:101D7000984210D0B8420ED0A0420CD0A8420AD04F
:101D8000B04208D0124CA04205D0124CA04202D062
:101D9000114CA04203D122F44074CA6822434C691A
:101DA00022F08002224302608A68C2620A6882626C
:101DB000984201D10969016301214161F0BD000030
:101DC000000001400004004000080040000C0040FA
:101DD000004001400044014000480140FEE709077F
:101DE000090E002804DB00F1E02080F800147047A1
:101DF00000F00F0000F1E02080F8141D7047000093
:101E0000FEF744FEFFF746FFFFF7E4FDFFF732FE63
:101E1000FEF72CFC1C48FEF779FC0020FEF7C4FB03
:101E200008B172B6FEE7184E00241848254600F5A2
:101E30008071746004550D55641CFF2CFAD97460D0
:101E40004FF48074224600211048FEF785FC08B14B
:101E500072B6FEE7224600210D48FEF727FC08B1C6
:101E600072B6FEE775606D1CFF2DFCD9224608494D
:101E700006487560FEF7D5FA08B172B6FEE7FFF7BF
:101E80007FFD00F014F8FEE7000000208C00002029
:101E90008C01002001460020842900D0C81C704716
:101EA00010B500B9012000F023FB002010BD10B5D3
:101EB00000F044FB002010BD7FB50D46044641698B
:101EC000B0F9080081B1A16971B1FFF7E3FFD4E96E
:101ED00005128DE80700D4E900102B46226900F0B6
:101EE00040FC039004B070BDFFF7D4FF03A9CDE917
:101EF0000001208A2B4682B2D4E9001000F004FCD5
:101F0000012801D00020EDE70398EBE72DE9F0412F
:101F1000184C0F460546E6682068001D00F020FAC0
:101F200038B9206890F82C1001208840216981433D
:101F30002161681C07D137B12168BDE8F0410E4826
:101F4000091D00F051BA20683544B542456021684A
:101F500005D2A06BBDE8F041091D00F02DBA606B01
:101F6000091D00F029FAA06A854200D2A562BDE8E9
:101F7000F0810000240000205C0600202DE9F041E3
:101F8000054600F03DFA2E4CA068401CA060206879
:101F90002C4F10B1606940B32DE02560A068012886
:101FA00029D1002606EB860007EB800000F0F6F949
:101FB000761C072EF6D323488C3000F0EFF9214829
:101FC000A03000F0EBF91F48B43000F0E7F91D48ED
:101FD000C83000F0E3F91B48DC3000F0DFF91948A5
:101FE0008C3060631430A06305E02068E96AC06A41
:101FF000884200D82560606A401C6062E96A01205E
:10200000226988401043206101EB810007EB8000CA
:10201000291D00F0E9F900F013FA606900280CD0DE
:102020002068E96AC06A884207D207494FF08050A9
:102030000860BFF34F8FBFF36F8FBDE8F0810000E2
:10204000240000208005002004ED00E010B50446C7
:1020500090F8510058B101280CD002280FD0502020
:1020600080F31188BFF34F8FBFF36F8FFEE7206BB4
:1020700000F0FAF92046BDE8104000F0F5B910BDB7
:1020800010484FF47051420706D0C01D0D4920F092
:102090000700411AC1F570510B4A00230144C2E9FF
:1020A00000030839183A21F0070111604B600B60FA
:1020B0000B1AC0E9001393604FF000405360506169
:1020C000704700007006002078000020144E154C68
:1020D000A6F1C8074FF08058DFF84C9012E000BF1F
:1020E00000F08EF9F068C568281D00F039F9A06885
:1020F000401EA0606068401E606000F0A1F92846A4
:10210000FFF7A4FF60680028EAD138680128F9D9F0
:10211000C9F80080BFF34F8FBFF36F8FF2E7000065
:10212000480600202400002004ED00E02DE9F047DF
:102130009A46DDE9098481466FF00303206B03EBC7
:1021400082021044089E20F00707780707D050202D
:1021500080F31188BFF34F8FBFF36F8FFEE7002529
:1021600061B1002023180A5C83F834200A5C12B1A4
:10217000401C1028F6D384F8435001E084F8345012
:10218000072E00D30626E662C4E91165201D00F083
:1021900010F904F1180000F00CF92461C6F10700F1
:1021A0006462A061E56484F850505246494638465E
:1021B00000F0C0F82060B8F1000F01D0C8F800406E
:1021C000BDE8F08730B5114900E011460A68824247
:1021D000FBD34B685C18844203D1406818444860C4
:1021E000084643681C18944209D1084C183C2468DE
:1021F000A24209D052681A4442600A68126802601A
:10220000814200D0086030BD0460F9E7780000200A
:102210000648416B096829B1416BC968C9684968BA
:10222000816270474FF0FF31FAE700002400002080
:1022300008484068401C4FF0500080F3118804D0DB
:10224000BFF34F8FBFF36F8FFEE7BFF34F8FBFF327
:102250006F8FFEE7800000202DE9F0410546002742
:1022600000F0A2F9324E306808B9FFF709FF706933
:1022700005424ED1C5B3083568070ED005F00700FA
:10228000C0F108000544680707D0502080F311888A
:10229000BFF34F8FBFF36F8FFEE72DB3706885429A
:1022A00037D82348183001460C6801E020460C4618
:1022B0006168A94202D221680029F7D131688C42B5
:1022C00027D007682168016060680837411B102922
:1022D0000FD96019420708D0502080F31188BFF34E
:1022E0004F8FBFF36F8FFEE713E041606560FFF72C
:1022F00069FF61687068401A7060B268904200D2ED
:10230000B060706901430020C4E90001F068401C1E
:10231000F06000F0B7FA780707D0502080F31188FA
:10232000BFF34F8FBFF36F8FFEE73846BDE8F081F4
:102330006000002010B5031F4FF080741C601B1F4D
:1023400021F001011960191F044B0B6014390A6058
:10235000091F6FF0020244380A6010BD31220008E4
:10236000D0E9013201699A60D0E901235A604A68D4
:10237000824201D182684A60002202610868401EE0
:102380000860086870470000034B036003F15400C5
:1023900008608020106070478C02002000F1080166
:1023A0004FF0FF32C0E90112C160016100210160FC
:1023B000704700210161704730B50B685A1C02D08C
:1023C00000F1080202E0026904E022465468256830
:1023D0009D42FAD953684B6099608A6051600861E8
:1023E0000168491C016030BD42684A6093688B6097
:1023F00093685960916008610168491C01607047E9
:10240000502080F31188BFF34F8FBFF36F8F0A49BD
:102410004868401C486001280CD10848006810F04A
:10242000FF0F07D0502080F31188BFF34F8FBFF309
:102430006F8FFEE7704700008000002004ED00E091
:102440000849486828B1401E486001D180F31188CE
:102450007047502080F31188BFF34F8FBFF36F8F09
:10246000FEE700008000002070B500282AD0164D3D
:10247000A0F1080460686969084207D1502080F320
:102480001188BFF34F8FBFF36F8FFEE722683AB119
:10249000502080F31188BFF34F8FBFF36F8FFEE79B
:1024A0008843606000F080F860686968084468608C
:1024B0002046FFF787FE2869401C2861BDE8704070
:1024C00000F0E0B970BD0000600000204FF0E02097
:1024D00000210161816105494FF47A720968B1FBFD
:1024E000F2F1491E4161072101617047200000207F
:1024F00010B5020014D00F48006B38B1502080F3A3
:102500001188BFF34F8FBFF36F8FFEE700F04CF8D9
:1025100000211046FFF7FAFC00F0B4F9002807D1BB
:1025200005494FF080500860BFF34F8FBFF36F8FA6
:1025300010BD00002400002004ED00E010B586B0BE
:102540000024039405AA04A903A80494FFF71CFF20
:10255000DDE903010094CDE9011000230EA110482C
:10256000059A00F0FEF80F490028C86211D05020EB
:1025700080F31188BFF34F8FBFF36F8F4FF0FF30A1
:10258000886201204861CC6006B0BDE8104000F0D0
:1025900041B806B010BD000049444C4500000000A1
:1025A000CD200008240000200248016B491C016373
:1025B00070470000240000201448016B11B1012174
:1025C000C16170470021C1610169B1FA81F1C1F1B6
:1025D0001F0101EB81020E4951F822306BB101EB72
:1025E000820101F108034A6852684A609A4201D1A7
:1025F00052684A60D16801607047502080F31188AA
:10260000BFF34F8FBFF36F8FFEE700002400002061
:10261000800500201CB537480168374A914207D130
:10262000502080F31188BFF34F8FBFF36F8FFEE709
:1026300000683149491E884207D1502080F3118833
:10264000BFF34F8FBFF36F8FFEE72C4908780190DF
:10265000FF20087008788DF800009DF800009DF8B4
:10266000002000F0F000904207D0502080F3118845
:10267000BFF34F8FBFF36F8FFEE79DF80000204C34
:1026800000F0500020700720A06005E09DF80020B9
:1026900052008DF80020401E9DF800201206F5D44F
:1026A000A060032807D0502080F31188BFF34F8F1C
:1026B000BFF36F8FFEE74FF44070A0600198087081
:1026C0000C482030016841F470010160016841F05C
:1026D00070410160FFF7FAFE00206060FDF7CEFD5B
:1026E0000848016841F040410160FDF7B3FD00205A
:1026F0001CBD000000ED00E071C20F4100E400E0ED
:102700008000002034EF00E02DE9FF5F8346DDE923
:102710000E87994616468A469000FFF79DFD0500F4
:102720001CD05420FFF798FD040014D0002025632E
:1027300084F85100CDE90240CDE900874B4632468E
:1027400051465846FFF7F2FC2046FFF717FC0120E0
:1027500004B0BDE8F09F2846FFF786FE4FF0FF303B
:10276000F6E7F0B585B0DDE90B640A9DA6B1DCB1F2
:10277000542700972663022684F85160002604AF90
:10278000CDE90246CDE90057FFF7D0FC2046FFF720
:10279000F5FB049805B0F0BD502080F31188BFF31D
:1027A0004F8FBFF36F8FFEE7502080F31188BFF388
:1027B0004F8FBFF36F8FFEE72DE9F0412F4C0026BE
:1027C000206B28B1A069401CA0613046BDE8F081B3
:1027D000E5686D1CE56013D1606B006838B150206E
:1027E00080F31188BFF34F8FBFF36F8FFEE7606BED
:1027F000A16B6163A063206A401C2062FFF708FDA3
:10280000A06ADFF87C80854209D3606B0068A0B1C4
:10281000606BC068C7687868854211D2A062206882
:10282000C06A00EB800158F82100012800D9012678
:10283000E0690028C9D00126C7E74FF0FF30EDE777
:10284000381DFFF78DFDB86A18B107F11800FFF7C2
:1028500087FDF96A0120226988401043206101EB5D
:10286000810108EB8100391DFFF7BEFDF86A216880
:10287000C96A8842C9D30126C7E7000024000020A6
:10288000800500202DE9F0472C4D00242746286BB9
:1028900038B1FFF7B5FD286B401E2863286B40B1A7
:1028A00046E0502080F31188BFF34F8FBFF36F8F46
:1028B000FEE7A968224E0120D1B3A6F1B4098046F3
:1028C0003068E8B1F068C46804F11800FFF748FD0B
:1028D000201DFFF745FDE06A2A6908FA00F111435F
:1028E000296100EB800109EB8100211DFFF77CFDD0
:1028F000E06A2968C96A8842E2D3C5F81C80DFE72C
:102900000CB1FFF785FCAC6944B14646FFF754FFB4
:1029100000B1EE61641EF9D10020A861E86938B108
:102920000849012738070860BFF34F8FBFF36F8F47
:10293000FFF786FD3846BDE8F08700002400002040
:102940003406002004ED00E04FF04070E1EE100A84
:1029500070470000D82900082D1C00080000000066
:1029600000000000800000000000000000000000E7
:10297000C0290008591C0008FDFF000000000000ED
:10298000800000000000000000000000CC290008CA
:10299000611C0008FDFF0000000000008000000036
:1029A0000000000000000000000000000000000027
:1029B00001020304060708090000000001020304E5
:1029C0006D795461736B3032000000006D79546191
:1029D000736B30330000000064656661756C74547D
:1029E00061736B00042A0008000000208C000000C6
:1029F000D0010008902A00088C0000204448000004
:102A0000EC010008000000000000000000000000D1
:102A100000000000000000000100000010000000A5
:102A2000000000000024F40000000000000000008E
:102A30000000000000000000000000000000000096
:102A40000000000000000000000000000000000086
:102A50000000000000000000000000000000000076
:102A60000000000000000000000000000000000066
:102A70000000000000000000000000000000000056
:102A80000000000000000000AAAAAAAA000000009E
:040000050800019559
:00000001FF
